:020000040800F2
:1000000000500020C95B0008395900083D5900081C
:10001000595900085D5900086159000800000000A6
:10002000000000000000000000000000655900080A
:1000300069590008000000006D5900087159000856
:10004000115C0008115C0008115C0008115C0008DC
:10005000115C0008115C0008115C0008115C0008CC
:10006000115C0008115C0008115C0008115C0008BC
:10007000115C000881590008115C0008115C00083F
:100080008D590008115C0008115C0008115C000823
:10009000115C0008115C0008115C0008115C00088C
:1000A000115C0008115C0008115C0008115C00087C
:1000B000115C0008115C0008115C0008115C00086C
:1000C000115C0008115C0008115C0008115C00085C
:1000D000115C0008115C000899590008A559000836
:1000E000115C0008B1590008115C00080000000014
:1000F0000000000000000000000000000000000000
:0C01000000000000000000005FF808F1A3
:10010C0010B5054C237833B9044B13B10448AFF345
:10011C0000800123237010BD0C00002000000000A3
:10012C00385D000808B5034B1BB103490348AFF316
:10013C00008008BD0000000010000020385D0008A1
:10014C00034613F8012B002AFBD1181A013870470B
:10015C004FF47A7370B50D4D0D4A29781268B3FBC4
:10016C00F1F30646B2FBF3F000F09EF808B90F2E3F
:10017C0001D9012070BD0446024631464FF0FF30D4
:10018C0000F050F86E60204670BD00BF00000020EB
:10019C0008000020074A08B51368032043F0100339
:1001AC00136000F02DF80020FFF7D2FF05F06EFB76
:1001BC00002008BD00200240034A044B11681B7844
:1001CC000B441360704700BFC002002000000020E9
:1001DC00014B1868704700BFC002002038B50446B8
:1001EC00FFF7F6FF631C054602D0044B1B781C443A
:1001FC00FFF7EEFF401BA042FAD338BD00000020F1
:10020C004FF6FF01064A0002D36800F4E0600B4091
:10021C0043F0BF6343F400330343D360704700BF24
:10022C0000ED00E0184B30B4DB68C3F30223C3F1DC
:10023C000705042D03F1040428BF0425062C19D945
:10024C004FF0FF34033B9C4022EA04044FF0FF3292
:10025C00AA4021EA020101FA03F22243120100280A
:10026C00D2B20ADB00F1604000F5614080F8002357
:10027C0030BC704700242346E8E7044B00F00F0025
:10028C0003441A7630BC704700ED00E0FCEC00E053
:10029C00012300F01F01034A40098B4042F8203033
:1002AC00704700BF00E100E00138B0F1807F0DD253
:1002BC0030B4F02500220721054B064C586084F819
:1002CC002350104630BC9A6019607047012070476B
:1002DC0010E000E000ED00E0044A042813680CBFB5
:1002EC0043F0040323F004031360704710E000E0B4
:1002FC0008B504F065FA08BD70B30346F0B4D0E954
:10030C000126002401253243DE680068324313497C
:10031C001E69134F014432435E69A7FB01713243DE
:10032C009E69DF69324306680909890026F47F5605
:10033C003A4326F0300619640A493243D963026005
:10034C002046C3E90A44C3E90C449C6383F820406B
:10035C0083F82150F0BC704701207047F8FFFDBFB7
:10036C00CDCCCCCC00000240F0B590F82040012C54
:10037C0032D0012490F8215080F82040A54225D19C
:10038C0000264FF0020E046886632668076CD0F8CE
:10039C003CC0BD4026F00106476880F821E026608D
:1003AC00CCF804506360C36A102F0BBFA260A1602D
:1003BC00E160E2609BB1236843F00E0323600023ED
:1003CC002268184642F001022260F0BD002202238E
:1003DC0080F820201846F0BD02231846F0BD236893
:1003EC0023F004032360236843F00A032360E6E749
:1003FC0038B590F82130022B04D0042201248263FA
:10040C00204638BD03681D491A688B4222F00E0243
:10041C001A601A6822F001021A6021D0184A93421D
:10042C001CD0143293421DD0143293421DD014327E
:10043C0093421DD0143293420CBF4FF480134FF0F3
:10044C008073012100240F4D426B6B6080F82110EA
:10045C0080F820407AB19047204638BD1023F0E751
:10046C000123EEE74FF48073EBE74FF48053E8E79A
:10047C004FF48033E5E71446C2E700BF08000240A2
:10048C001C00024000000240042270B4D0E90F614D
:10049C00346803688A4022421D681FD06A071DD544
:1004AC001A68910603D41A6822F004021A603F4AB3
:1004BC0093425CD01432934261D01432934268D090
:1004CC00143293426BD0143293425DD01432934267
:1004DC000CBF4FF480034FF0806349E002228A4046
:1004EC00224222D0AA0720D51A68910606D40121EF
:1004FC001A6822F00A021A6080F821102B4A9342E3
:10050C002BD01432934242D01432934244D0143242
:10051C00934236D01432934244D0143293420CBFDF
:10052C004FF400134FF0007318E008228A40224267
:10053C001BD02A0719D5012200251C6802FA01F1EB
:10054C0024F00E041C60036B7160826380F8212020
:10055C0080F820504BB170BC184702230021144C7A
:10056C00826A636080F820103AB970BC704704232B
:10057C000F49C26A4B60002AF7D070BC1047402369
:10058C00F6E74FF40053E9E74FF48023F0E720231C
:10059C00E4E74FF48063EBE74FF40073DEE74FF4CE
:1005AC008043E5E74FF40033D8E700BF0800024072
:1005BC00000002402DE9F04F4FF0000883B0444694
:1005CC00DFF8C0C1694EDFF8C0E102E00134102C45
:1005DC0078D001230A68A3401A409342F6D14D68A3
:1005EC00122D00F09C807ED8022D00F0948074D9DE
:1005FC00032D00F08D80112D02D1CB6803F104087E
:10060C00FF2A62D882460368A5004FF00F0909FA49
:10061C0005FB23EA0B0308FA05F52B43CAF8003057
:10062C00D1F804A01AF0805FD0D0514F24F003050C
:10063C00BB6905F1804543F00103BB61BB6905F55E
:10064C00803503F00103019304F0030B019B4FEA87
:10065C008B0BAB6809FA0BF9604523EA09030FD041
:10066C00704560D0434FB84278D0434FB8420CBF6E
:10067C004FF003094FF0040909FA0BFB43EA0B0393
:10068C00AB6033681AF4803F14BF13439343336059
:10069C0073681AF4003F14BF134393437360B36839
:1006AC001AF4801F14BF13439343B360F3681AF416
:1006BC00001F04F1010414BF1A4323EA0202102C98
:1006CC00F26086D103B0BDE8F08F04F18045083D9F
:1006DC004368AD0000F1040A97E7A5B1012D8FD155
:1006EC00D1F80C808CE7254FBD420CD029D9244F72
:1006FC00BD4208D007F58037BD4204D0DFF88C909E
:10070C004D457FF47DAF8D68A5B94FF0040877E7B0
:10071C004FF0000874E7CB6803F1080870E7CB686A
:10072C0003F10C086CE74FF0010909FA0BFB43EAE3
:10073C000B03A5E7012D0CBF036143614FF00808C3
:10074C005EE7DFF84C904D45DDD009F580394D451D
:10075C007FF456AF8D68002DD7D0EBE74FF0020930
:10076C0009FA0BFB43EA0B038AE700BF00040140C4
:10077C000010024000100140001401400000211044
:10078C000000311000080140000C01400000221054
:10079C000000111002B9090401617047C368594087
:1007AC00C160704720BF00BF704700BF0122014BE2
:1007BC001A60704720000E420F4A10B513680F4C98
:1007CC0023F0020313601368012923F0010340EAAC
:1007DC0003001060236943F0040323610AD040BF77
:1007EC00FFF7E0FFFFF7DEFF044A136923F0040371
:1007FC00136110BD30BFF7E70070004000ED00E062
:10080C002DE9F041036882B0DD07044630D5AB49D1
:10081C004A6802F00C02042A00F0DA804A6802F0FE
:10082C000C02082A00F0D0806368B3F5803F00F01A
:10083C000F81002B00F02781B3F5A02F00F0B581BC
:10084C009E4B1A6822F480321A601A6822F48022B5
:10085C001A60FFF7BDFC994D064605E0FFF7B8FCA2
:10086C00801B642800F20B812B689A03F6D5236851
:10087C009F0728D5914A516811F00C0F00F0B680F3
:10088C00516801F00C01082900F0AC802369002BA1
:10089C0000F0418101228A4B884D1A60FFF798FCC9
:1008AC00064605E0FFF794FC801B022800F2E78067
:1008BC002B689807F6D52B68626923F0F80343EA96
:1008CC00C2032B6023681A0722D5A369002B00F002
:1008DC00988001227B4B794D1A60FFF779FC064614
:1008EC0005E0FFF775FC801B022800F2C8806B6ADC
:1008FC009B07F6D5744B754A1B68A2FB03235B0A56
:10090C00019300BF019B5A1E0192002BF9D1236861
:10091C005D0739D5694BDA69D00040F1828000253A
:10092C006B4B1A68D10540F19980E368012B0FD00D
:10093C00002B00F0D180052B604B1A6A00F0FC8074
:10094C0022F001021A621A6A22F004021A6204E00E
:10095C005A4A136A43F001031362FFF739FC574EEE
:10096C00804641F2883706E0FFF732FCA0EB080026
:10097C00B84200F28480336A9B07F5D525B14F4A03
:10098C00D36923F08053D361E269CAB14B4D6968D6
:10099C0001F00C01082930D0022A4FF000014D4A19
:1009AC0000F0D2801160FFF713FC2C46054604E0E2
:1009BC00FFF70EFC401B022861D823689B01F7D47B
:1009CC00002002B0BDE8F0814A68D0037FF52CAF5F
:1009DC003A4A126891037FF54BAF6268002A7FF4A4
:1009EC0047AF0AE05268D6033FF550AF334A12685E
:1009FC00950721D52269012A1ED0012002B0BDE83D
:100A0C00F081304A2D4D1360FFF7E2FB064604E0FF
:100A1C00FFF7DEFB801B022831D86B6A9F07F7D4E7
:100A2C0075E7DA69012542F08052DA61DB6903F07F
:100A3C0080530093009B73E7204960690A6822F099
:100A4C00F80242EAC0020A601A077FF561AF3CE780
:100A5C001A4A136843F480331360FAE61A681E4688
:100A6C0042F480721A60FFF7B3FB07463368DA056D
:100A7C003FF55BAFFFF7ACFBC01B6428F6D9032036
:100A8C0002B0BDE8F08103F1804303F504331A682A
:100A9C001D4622F480321A601A6822F480221A60F1
:100AAC00FFF796FB064604E0FFF792FB801B6428D9
:100ABC00E5D82B689B03F7D4D9E600BF00100240A1
:100ACC00000042428004424208000020D34D6210D4
:100ADC00007000406000424203F1804303F5043390
:100AEC001A6A1E4622F001021A621A6A41F288380A
:100AFC0022F004021A62FFF76BFB074604E0FFF7D3
:100B0C0067FBC01B4045BAD8336A9807F7D4002D51
:100B1C003FF43AAF33E72B4A2B4D1360FFF758FBEA
:100B2C00064604E0FFF754FB801B0228A7D82B686D
:100B3C009907F7D42368C6E642F004021A621A6ACF
:100B4C0042F001021A6208E71160FFF741FB06460A
:100B5C0004E0FFF73DFB801B022890D82B6899011D
:100B6C00F7D4226AB2F5803F05D16B68A16823F4F3
:100B7C0000330B436B600125134B606A59680243C9
:100B8C0021F4741111480A435A6005601C46FFF7A2
:100B9C001FFB054605E0FFF71BFB401B02283FF639
:100BAC006EAF23689A01F6D50AE703F18043A3F5EB
:100BBC003C331A6842F480221A601A6842F480327C
:100BCC001A6046E6000042420010024060004242B9
:100BDC00634A136803F007038B420BD2136823F0AC
:100BEC0007030B431360136803F007038B4201D018
:100BFC00012070472DE9F041036886B09A0706D5AD
:100C0C00584C8568626822F0F0022A436260DB0768
:100C1C0004460E4625D54268524B012A1B6800F04B
:100C2C009980022A00F0928098072AD54D4D41F206
:100C3C0088386B6823F0030313436B60FFF7C8FA23
:100C4C0063680746012B64D0022B06D16CE0FFF7DA
:100C5C00BFFAC01B404500F281806B6813F00C0F8B
:100C6C00F5D13F4A136803F00703B3420DD913685B
:100C7C0023F0070333431360136803F00703B342F5
:100C8C0003D0012006B0BDE8F0812368590706D5D2
:100C9C003449E0684A6822F4E06202434A601A0769
:100CAC0007D5304A2169536823F4605343EAC103E2
:100CBC00536040F201222C4B06ACADF804200FCB54
:100CCC0004E90F0027494A6802F00C03082B10D0E6
:100CDC00264B244A264852682649C2F30312825CEA
:100CEC000020D3400B60FFF733FA002006B0BDE8BC
:100CFC00F081C2F38343234413F8100CD30319D4AB
:100D0C001D4B03FB00F3E4E7FFF762FAC01B404501
:100D1C0024D86B6803F00C03042BF5D1A1E7FFF783
:100D2C0057FAC01B404519D86B6803F00C03082B0D
:100D3C00F5D196E74A680D4BC2F3404203FB00F332
:100D4C00224412F8142CB3FBF2F3C2E79D013FF5D9
:100D5C006DAF96E79F033FF569AF92E7032091E7EC
:100D6C000020024000100240505D000800127A0082
:100D7C00705D00080800002000093D00014B186858
:100D8C00704700BF08000020044B05495B68054A0A
:100D9C00C3F30223CB5C1068D840704700100240AC
:100DAC00805D000808000020044B05495B68054A7B
:100DBC00C3F3C223CB5C1068D840704700100240CC
:100DCC00805D0008080000202DE9F0410446006811
:100DDC0082B0C5072AD53A4BDA69D1003DD5394BDB
:100DEC0000251A68D20546D5354960680A6A12F49E
:100DFC0040720FD000F4407393420BD001270026B1
:100E0C000B6A314A23F44070176016600862D807E9
:100E1C0045D460682A4A136A23F44073034313626F
:100E2C001DB1D36923F08053D3612068830706D5A5
:100E3C00234AA168536823F440430B43536010F0DA
:100E4C00100007D000201E4AE168536823F4800389
:100E5C000B43536002B0BDE8F081DA69012542F022
:100E6C008052DA61DB6903F080530193019B154BCF
:100E7C001A68D205B8D41A681E4642F480721A60F9
:100E8C00FFF7A6F907463368DB05ADD4FFF7A0F9E9
:100E9C00C01B6428F7D9032002B0BDE8F0810E46D0
:100EAC00FFF796F941F288378046336A9A07B0D437
:100EBC00FFF78EF9A0EB0800B842F6D9EBE700BFBC
:100ECC0000100240007000404004424210B504463D
:100EDC0040F2012286B0344B0DF1180C022CADF807
:100EEC0004200FCB0CE90F0042D0102C1CD0012C8D
:100EFC0002D0002006B010BD40F202322B490B6A22
:100F0C001A40B2F5817F4BD003F44073B3F5007FE8
:100F1C003AD0B3F5407FECD10B684FF2244013F478
:100F2C00003F08BF0020E5E7204B5968186810F017
:100F3C008070DFD006A8C1F38342024412F8100C73
:100F4C00CA0329D55B6806A9C3F340430B44184A6E
:100F5C0013F8143CB2FBF3F300FB03F0134B5B6888
:100F6C005B02C7D4134B4000A3FB00304008C1E721
:100F7C00FFF71AFF0D4B5B68C3F3813301335B0042
:100F8C00B0FBF3F006B010BD4B6A49F6404013F0CD
:100F9C00020F08BF0020ADE7074B03FB00F0DDE7B5
:100FAC004FF40040A6E700BF605D0008001002404F
:100FBC0000127A00ABAAAAAA00093D0000286ED044
:100FCC0038B5437C044603F0FF02002B63D00223A8
:100FDC0022686374536823F008035360FFF7F8F832
:100FEC00054605E0FFF7F4F8401BB0F57A7F4ED8C4
:100FFC0023685B681807F5D5FFF7EAF8054605E0A6
:10100C00FFF7E6F8401BB0F57A7F40D823685A68A2
:10101C009106F5D55968A06841F0100159605968DE
:10102C0021F00701596020B122490A6B22F001021C
:10103C000A632049CA6A22F460720243CA62606879
:10104C00421C2ED0996885B221F00F0141EA104163
:10105C009960DA68120C12042A43DA605A6822F09A
:10106C0010025A60FFF7B4F8054605E0FFF7B0F838
:10107C00401BB0F57A7F0AD823685B689B06F5D5D0
:10108C00012300206373E073A373637438BD0423DE
:10109C000120637438BD027404F07CFB97E70120D7
:1010AC0070470120FFF712FF0028F0D023680138A9
:1010BC00C8E700BF006C004000287ED000297CD01F
:1010CC00037C012B00F0A28070B502230124437431
:1010DC0004740C784B788978002A76D14FF46166C9
:1010EC00C3EB03139B0006FB04335E180446FFF7A7
:1010FC006FF8054605E0FFF76BF8401BB0F57A7FFB
:10110C005DD823685A689206F5D55868310C40F0C2
:10111C001000B2B258609961DA615A6822F010027C
:10112C005A60FFF755F8054605E0FFF751F8401BEC
:10113C00B0F57A7F43D823685A689006F5D55A687B
:10114C0022F005025A601A6A5D6AADB245EA0245A0
:10115C006B1C2DD0AE422BD9FFF73AF8064605E0B2
:10116C00FFF736F8801BB0F57A7F28D823685A68C9
:10117C009106F5D55A6805F5A83505F5C075290C05
:10118C0042F01002ADB25A6019625D625A6822F0E8
:10119C0010025A60FFF71CF8054605E0FFF718F837
:1011AC00401BB0F57A7F0AD823685B689A06F5D5A0
:1011BC00012300206374207470BD01207047042249
:1011CC00002362742374012070BD4FF461621D0909
:1011DC0005EB850503F00F0303EB4503260906EB2E
:1011EC008605DBB204F00F06C3EB031306EB4506D2
:1011FC00F6B29B0002FB06330E0906EB860201F0E9
:10120C000F0606EB4206F6B21E446FE7022070474B
:10121C00002800F01181002900F00E81D0F800C0E8
:10122C002DE9F84FDCF804305C0700F10281DCF8A2
:10123C001840DCF81C70DCF81830A6B29DB2AE4237
:10124C0000F0FC80DCF81C70BFB247EA03470C4688
:10125C004FF46161C54B0546A3FB0703DB0A01FB99
:10126C0013711646C24A172BA2FB01024FEA521207
:10127C00C2EB0210A1EB80016270A17040F2E2801F
:10128C00BC4AA2FB0312120902EB4202A3EBC203FB
:10129C002370DCF82020DCF824301FFA83F848EAAD
:1012AC000248B8F1FF3F05D047452CBF4FF0FF383F
:1012BC00A8EB0708FEF78CFF814607E0FEF788FFD6
:1012CC00A0EB0900B0F57A7F00F2B3802B685A6866
:1012DC009206F3D5A84AA949A2FB07294FEA194956
:1012EC0001FB19795A684FEA194042F010021FFAB3
:1012FC0089F15A609861D9615A6822F010025A60DB
:10130C00FEF766FF824607E0FEF762FFA0EB0A00DD
:10131C00B0F57A7F00F28D802B685B689B06F3D565
:10132C00B8F1FF3F00F00181FEF752FF824606E064
:10133C00FEF74EFFA0EB0A00B0F57A7F79D82B6848
:10134C005A689006F4D55968C8444FEA18401FFAF9
:10135C0088F241F01001596018625A625A6822F002
:10136C0010025A60FEF734FF804606E0FEF730FFAD
:10137C00A0EB0800B0F57A7F5BD82B685B68990608
:10138C00F4D57D4BE87BA3FB07373F0C6B7BAA7B2B
:10139C0000F09F8000214FF064094FF4C878DFF80B
:1013AC00E4E13AE0052B00F0BC80072B00F0FB8059
:1013BC00082B00F015810A2B00F01B810C2B00F080
:1013CC001D81042B00F02581062B00F02B81092BAD
:1013DC0000F02B810B2B00F02B811FFA80FAAEFB57
:1013EC000AB14FEAD11B08FB1BAB490909FB11A140
:1013FC001FFA8BFB89B20AF0030ABBF1000F00F055
:10140C001A81002940F05681BAF1000F4CD1022B01
:10141C00614600F08D818F425BD9012B01F1010CEB
:10142C0053D0032BBED11E2A4CD904236146012272
:10143C00F1E70120BDE8F88F01207047BFB247EA01
:10144C00044704E7237066B32278092A40F2CF8060
:10145C0000230A3AD2B2092A03F10103F9D81B017D
:10146C00D9B263780A43092B227040F2BE80002265
:10147C000A3BDBB2092B02F10102F9D81201D1B2FD
:10148C00A2780B43092A63704FF0000307D90A3A7C
:10149C00D2B2092A03F10103F9D81B01DBB21A43BA
:1014AC00A2700020BDE8F88F022B6146B3D11B2A35
:1014BC0000F22981674502F1010240F220810CF112
:1014CC00010CF1E701326146A5E71E2AFAD9022385
:1014DC00ACE72B4F03EB4301C3EBC101A7FB01713D
:1014EC00022BE8736B73AA734FEA510100F5FA678C
:1014FC0066D924483A44A0FB073002320A4402EB76
:10150C00970202EBD012204BA2EB5012A3FB02135A
:10151C00D11A03EB51039B08C3EBC303D31A2B73F0
:10152C0091E71E2ACED9062380E7FEF751FE8046AE
:10153C0007E0FEF74DFEA0EB0800B0F57A7F3FF612
:10154C0078AF2B685A689206F3D54FF6FF715A683C
:10155C0042F010025A60196259625A6822F0100265
:10156C005A60FEF735FE804618E000BFC5B3A29165
:10157C0089888888ABAAAAAA07452EC28051010087
:10158C00398EE3381F85EB5125499224FEF720FE56
:10159C00A0EB0800B0F57A7F3FF64BAF2B685B6889
:1015AC009B06F3D5EDE61E2A8CD908233EE70127CE
:1015BC0002213B463A46AF73E8736B7300F5FA674A
:1015CC00754B00F2CF703A44A3FB003704320A4447
:1015DC0002EB900202EBD712704BA2EB571295E77D
:1015EC001E2A7FF66FAF092320E7002148E7002170
:1015FC0037E71E2A7FF666AF0B2317E71E2A7FF606
:10160C0061AF674500F10100D1D9023102220123FB
:10161C0001E74FF0050A1D2A7FF654AF6146534689
:10162C000122F8E64FF0070AF5E74FF00A0AF2E755
:10163C004FF00C0AEFE7F1B9BAF1000F0CD1022B05
:10164C0061467FF4E8AE1B2A53D8674502F10102CC
:10165C0055D90CF1010CF2E7022B61467FF4DBAE9D
:10166C001B2A58D91C2A7BD01D2A79D0674546D90C
:10167C000CF1010CF0E7BAF1000F0ED1022B614610
:10168C007FF4C9AE1B2A48D91C2A7DD01D2A67D0ED
:10169C00674534D90CF1010CF0E7022B61467FF45D
:1016AC00BAAE1B2A4FD8674502F1010227D90CF1BB
:1016BC00010CF2E7BAF1000F0CD1022B61467FF45A
:1016CC00AAAE1B2A2BD8674502F1010217D90CF1DF
:1016DC00010CF2E7022B61467FF49DAE1B2A25D943
:1016EC001C2A3DD01D2A3BD0674508D90CF1010CB2
:1016FC00F0E71C2A30D01D2A32D06745A9D8D7B2C2
:10170C000521022357E71C2A2AD01D2A28D0674519
:10171C003FF6D5AEF3E70132A8E70132B8E71C2A51
:10172C0036D01D2A1CD06745D1D8E8E70132DBE75B
:10173C001B2A0FD91C2A13D01D2A11D06745DED9BC
:10174C000CF1010C63E61C2A0AD01D2A08D067454F
:10175C00ADD8D4E70132F1E7674508D91D2278E707
:10176C00674508D90CF101010222032353E61D271A
:10177C0005213A461FE703230122E87300F5FA67B7
:10178C006B73AA730721B4E66745F0D91D2281E774
:10179C006745ECD91D229AE71F85EB512549922408
:1017AC0000284AD0002948D0F8B5037C012B75D00D
:1017BC000124022304744374002A40D1CD78C573EC
:1017CC004C7844738B7883736E4E04EB4402C4EBF9
:1017DC00C202A6FB0262022C05F5FA664FEA52021F
:1017EC004CD9694C0733A4FB06543344134403EB24
:1017FC009603664AA3EB5413A2FB03429C1A02EB1A
:10180C0054029208C2EBC2029A1AD2B202730A7044
:10181C0003689969DC699A698EB295B2AE423FD081
:10182C00DC695B4BA4B244EA02449C4206463ED8B7
:10183C000123002073743074F8BD01207047CA78FE
:10184C00140904EB840402F00F0202EB4404E5B229
:10185C00C5734A78140904EB840402F00F0202EBFE
:10186C004402D4B244738A78130903EB830602F062
:10187C000F0303EB4603DBB28373A5E7424F05F27C
:10188C00CF74A7FB047504333344134403EB940364
:10189C0003EBD5133D4AA3EB5513ADE70220F8BD7E
:1018AC00A4B23B4B44EA01449C420646C0D9FEF725
:1018BC008FFC054605E0FEF78BFC401BB0F57A7FEC
:1018CC0059D833685A689706F5D5324D324AA5FB7C
:1018DC0004152D0C02FB15455A68280C42F0100219
:1018EC00A9B25A609861D9615A6822F010025A6004
:1018FC00FEF76EFC044605E0FEF76AFC001BB0F533
:10190C007A7F38D833685A689006F5D51A6A5C6ABB
:10191C00A4B244EA0244631C8AD0A54288D9FEF7DB
:10192C0057FC054605E0FEF753FC401BB0F57A7FEB
:10193C0021D833685A689106F5D55A6804F5A8344D
:10194C0004F5C074210C42F01002A4B25A60196262
:10195C005C625A6822F010025A60FEF739FC0446A9
:10196C0033685B689A063FF563AFFEF731FC001BEA
:10197C00B0F57A7FF4D904220023727433740120F9
:10198C00F8BD00BF398EE3381F85EB5125499224F1
:10199C008F5F010007452EC280510100002800F026
:1019AC001781002900F01481037C012B00F01281B7
:1019BC002DE9F04F02240125036844745C6885B05E
:1019CC006407057400F100819D69DF699C691FFA49
:1019DC0085FCA6B2B44500F07B81DF69BFB247EA53
:1019EC00044702924FF461620D46BD49BD4EA1FB06
:1019FC0007184FEAD82802FB1872A6FB02167609C4
:101A0C004FEA061BABEB0601A2EB8102B8F1170FF4
:101A1C000446019240F2E0801A6A5B6A1FFA83F96D
:101A2C0049EA0249B9F1FF3F05D04F452CBF4FF0B1
:101A3C00FF39A9EB0709FEF7CBFB824607E0FEF75F
:101A4C00C7FBA0EB0A00B0F57A7F00F2BD802368DB
:101A5C005A689206F3D5A44AA449A2FB072A4FEA76
:101A6C001A4201FB12715A68080C039142F01002E1
:101A7C0089B25A609861D9615A6822F010025A6092
:101A8C00FEF7A6FB824607E0FEF7A2FBA0EB0A00DE
:101A9C00B0F57A7F00F2988023685B689B06F3D5DB
:101AAC00B9F1FF3F00F01881FEF792FB824607E088
:101ABC00FEF78EFBA0EB0A00B0F57A7F00F2848073
:101ACC0023685A689006F3D5039A59684A44100C57
:101ADC0041F0100192B2596018625A625A6822F0B1
:101AEC0010025A60FEF774FB814606E0FEF770FBAD
:101AFC00A0EB0900B0F57A7F66D823685B6899067D
:101B0C00F4D5794B94F80F90A3FB07373F0C637B0C
:101B1C00A27B00F0308100204FF0640A4FF4C87EA5
:101B2C0003943FE0052B00F05A81072B00F05B81FA
:101B3C00082B00F077810A2B00F078810C2B00F039
:101B4C007981042B00F08081062B00F08581092B14
:101B5C0000F085810B2B00F0A481654C1FFA89F0F5
:101B6C00A4FB004C4FEADC140EFB14044FEA5C1C83
:101B7C000AFB1C0CA4B21FFA8CFC00F00300002C16
:101B8C0000F07081039CBCF1000F40F0A88100288C
:101B9C0040F0DB80022B084600F0DB810394874287
:101BAC0040F2E880012B00F1010100F0DF80032BF3
:101BBC00B8D11E2A40F2D780042308460122EEE752
:101BCC000422002362742374012005B0BDE8F08F59
:101BDC00012070470220704713465FFA88F84FF4D3
:101BEC006161ABEB060603EB86066A782B78A87866
:101BFC00029D01FB0868002D4BD1C2EB021295002F
:101C0C0001FB03531D1845453CBF05F5A83505F5EB
:101C1C00C075FEF7DDFA064605E0FEF7D9FA801B23
:101C2C00B0F57A7FCCD823685A689106F5D55A68F6
:101C3C00290C42F01002ADB25A6019625D625A680A
:101C4C0022F010025A60FEF7C3FA054605E0FEF7D3
:101C5C00BFFA401BB0F57A7FB2D823685A68920657
:101C6C00F5D500256FF00202012628465A60196846
:101C7C00204A41F002011960136843F400331360E9
:101C8C00936843F4003393606674257405B0BDE823
:101C9C00F08F150905EB850502F00F0202EB4502EA
:101CAC001D0905EB8505D2B203F00F0303EB4503C9
:101CBC00C2EB02129200DBB201FB0323050905EB18
:101CCC00850200F00F0505EB4205EDB21D449AE7C5
:101CDC00BFB247EA054784E6FEF77AFA814613E07D
:101CEC00C5B3A2918988888807452EC2805101000E
:101CFC001F85EB5100040140FEF76AFAA0EB0900C6
:101D0C00B0F57A7F3FF660AF23685A689206F3D538
:101D1C004FF6FF715A6842F010025A60196259620C
:101D2C005A6822F010025A60FEF752FA814607E018
:101D3C00FEF74EFAA0EB0900B0F57A7F3FF644AF00
:101D4C0023685B689806F3D5DBE6022B08467FF424
:101D5C0025AF1B2A00F2F3808F4202F1010240F200
:101D6C00DF800131F1E70132084618E71E2AFAD963
:101D7C00022322E7039C914903EB4300C3EBC00011
:101D8C00A1FB0010022B84F80F906373A2734FEA2F
:101D9C00500009F5FA6135D9894F8B18A7FB01273B
:101DAC000233184400EB910101EBD711854BA1EBE9
:101DBC005711A3FB0123CA1A03EB52039A08C2EB77
:101DCC00C202814B8A1A2273A3FB08231B0903EB63
:101DDC004303A8EBC3085FFA88F8019BFFE61E2AB1
:101DEC00C1D90623E9E61E2ABDD90823E5E601215F
:101DFC0002200B460A46039CA17384F80F90637370
:101E0C0009F5FA616E4B09F2CF791144A3FB093243
:101E1C000431014401EB990101EBD211694BA1EBA7
:101E2C005211C6E71E2A9ED90923C6E61E2A9AD944
:101E3C000B23C2E61E2A96D98F4209F10109D6D985
:101E4C00023002220123AAE64FF0050C1D2A8AD982
:101E5C00084663460122A2E64FF0070CF6E74FF066
:101E6C000A0CF3E7039CBCF1000F1DD158B9022BEF
:101E7C0008467FF493AE1B2A4CD88F4202F1010224
:101E8C004ED90131F3E7022B08467FF487AE1B2AAB
:101E9C0053D91C2A7CD01D2A7AD08F4240D90131CB
:101EAC00F1E74FF00C0CD1E768B9022B08467FF430
:101EBC0075AE1B2A4BD91C2A71D01D2A68D08F42B3
:101ECC002ED90131F1E7022B08467FF467AE1B2AAD
:101EDC0049D88F4202F1010222D90131F3E758B9F6
:101EEC00022B08467FF45AAE1B2A1DD88F4202F1F2
:101EFC00010215D90131F3E7022B08467FF44EAEEF
:101F0C001B2A18D91C2A43D01D2A41D08F4207D92D
:101F1C000131F1E71C2A2FD01D2A39D08F42B0D8BD
:101F2C00D1B20520022367E71C2A29D01D2A2FD005
:101F3C008F42DFD8F4E70132E8E70132ADE71C2A23
:101F4C0026D01D2A24D08F423FF60BAFE8E7013292
:101F5C00B5E71B2A0ED91C2A1AD01D2A18D08F427D
:101F6C00DED9013116E61C2A12D01D2A10D08F4260
:101F7C00B3D8D5E70132F2E78F4205D91D2280E7AD
:101F8C008F4201D91D22B5E71D2105200A4633E7F2
:101F9C008F42039407D9481C02220323FFE58F428A
:101FAC00F2D91D228DE703230122039C09F5FA6166
:101FBC0084F80F906373A2730720EDE6398EE33833
:101FCC001F85EB5125499224ABAAAAAA704700BFE2
:101FDC00036810B51A680446920702D55B689B0724
:101FEC0006D44FF400310123054A5161637410BDCE
:101FFC00FFF7ECFF6FF0020223685A60F1E700BFB5
:10200C00000401402DE9F041044690F8500082B0E4
:10201C00012879D01F46012384F850300E4615460E
:10202C00FEF7D6F894F851108046C9B201296368BE
:10203C0011D0B3F5827F09D002200122002384F84D
:10204C00512084F8503002B0BDE8F081A268002A1B
:10205C00F2D10429F0D1002E5AD0002D58D0002FE7
:10206C0056D094F851200021012A04BF052284F88F
:10207C00512022686165E787E7861068C4E9101172
:10208C004106A563A7872663A78603D4116841F090
:10209C0040011160E168B1F5006F60D0002B00F0D9
:1020AC00BE80E38E9BB2012B00F0B980089B0133FC
:1020BC0040F0BD8001212268E38E9BB21BB9E38FF7
:1020CC009BB2002B36D071B1E38E9BB25BB193689F
:1020DC009F0708D50021337801361373E38E2268ED
:1020EC00013B9BB2E386E38F9BB2002BE4D0936859
:1020FC00D807E1D50121D3682B70E38F0D44013B48
:10210C009BB2E3872268D7E7022002B0BDE8F081DA
:10211C00012092E7916888075CD4089A002A00F0A5
:10212C00F280FEF755F8089BA0EB0800834240F2C2
:10213C00E9802268089913460131EBD193689D0719
:10214C00FCD593681906FCD4A068002840F0D88010
:10215C000190D368019393680193019B6DE7002B69
:10216C0000F09680E38E9BB2012B00F09180089BCF
:10217C00013340F095800121E38E9BB21BB9E38FB4
:10218C009BB2002BD6D069B1E38E9BB253B193684E
:10219C009F0707D5002136F8023BD360E38E013B45
:1021AC009BB2E386E38F9BB2002BE5D09368D807F4
:1021BC00E2D5D368012125F8023BE38F013B9BB2AA
:1021CC00E387D9E7FEF704F8089BA0EB08008342ED
:1021DC00226805D993681B06B6D5089B002BF1D154
:1021EC005368616823F0E003B1F5827F536000F01F
:1021FC00B080A36AB3F5005F08D14DF6FF71136888
:10220C000B401360136843F4005313600120202229
:10221C0084F85100636D1343636562650DE716F82E
:10222C00013B1373E38E013B9BB2E3863EE7012730
:10223C00E38E9BB223B9E38F9BB2002B3FF479AFB3
:10224C0077B1E38E9BB25BB123689A68910707D58F
:10225C000027327801361A73E38E013B9BB2E3867A
:10226C00E38F9BB25BB123689A68D20707D501272D
:10227C00DB682B70E38F3D44013B9BB2E387FDF79A
:10228C00A7FF089BA0EB08008342D1D80320D4E61B
:10229C0036F8023BD360E38E013B9BB2E38666E7E4
:1022AC000127E38E9BB223B9E38F9BB2002B3FF443
:1022BC0040AF77B1E38E9BB25BB123689A6891070C
:1022CC0007D5002736F8022BDA60E38E013B9BB270
:1022DC00E386E38F9BB25BB123689A68D20707D57C
:1022EC000127DB6825F8023BE38F013B9BB2E387B8
:1022FC00FDF76EFF089BA0EB08008342D1D8C5E721
:10230C0000209AE623685A68616822F0E002B1F571
:10231C00827F5A6011D0A26AB2F5005F08D14DF6E7
:10232C00FF711A680A401A601A6842F400521A6067
:10233C000123032084F851307FE6A268B2F5004FE8
:10234C0002D0B2F5806FE6D11A6822F040021A6012
:10235C00E1E7A368B3F5004F03D0B3F5806F7FF4CA
:10236C0048AF136823F04003136042E7002839D0CC
:10237C00F8B5002390F851200446836272B31A46D4
:10238C00D4E90136022700210125E0683343266990
:10239C00034360693343E66903433343206AA66908
:1023AC0084F851700343276806F400700343134309
:1023BC003A68606A22F04002360C3A6006F0040675
:1023CC003B60E36A06437E603B61FB69084623F48D
:1023DC000063FB61616584F85150F8BD03F028FA85
:1023EC00A26ACDE701207047002800F09C802DE9FF
:1023FC00F84390F83930044603F0FF02002B00F04C
:10240C008D802422236884F83920DA68E06822F46D
:10241C000052DA601969A26821F440510143196134
:10242C00D968D4E9045021F4B0512A4321F00C01AD
:10243C0002430A43DA605A69A0695B4922F440728C
:10244C0002438B425A6170D0FEF79EFC636800EB2E
:10245C00800000EB80009B00B0FBF3F3534F4FF078
:10246C006408A7FB03235B091D01FEF78DFC66685E
:10247C0000EB800000EB8000B600B0FBF6F6FEF738
:10248C0083FC626800EB8000930000EB8000B0FBE3
:10249C00F3F3A7FB03235B0908FB13631B01323324
:1024AC00A7FB03235B0903F0F006FEF76DFC6268E3
:1024BC0000EB800000EB80009300B0FBF3F9FEF71B
:1024CC0063FC626800EB8000930000EB8000B0FBC3
:1024DC00F3F3A7FB03235B0908FB13931B013233B4
:1024EC00A7FB0323C3F3431333432B4420210025C1
:1024FC00226828469360136923F49043136153694F
:10250C0023F02A035361D36843F40053D360E5638B
:10251C0084F8391084F83A10BDE8F88380F8382034
:10252C0003F0AEFA6DE701207047FEF73DFC6368DF
:10253C0000EB800000EB80009B00B0FBF3F31B4F23
:10254C004FF06408A7FB03235B091D01FEF72CFC6D
:10255C00666800EB800000EB8000B600B0FBF6F67E
:10256C00FEF722FC626800EB8000930000EB800019
:10257C00B0FBF3F3A7FB03235B0908FB13631B01FD
:10258C003233A7FB03235B0903F0F006FEF70CFCC8
:10259C00626800EB8000930000EB8000B0FBF3F965
:1025AC00FEF702FC8DE700BF003801401F85EB51A0
:1025BC00F0B5044690F8390083B020282DD10E4692
:1025CC0000292DD001925AB31F4694F83830012BB4
:1025DC0023D0002001212123E06384F8381084F8F3
:1025EC003930FDF7F5FD0546019AA284E284226894
:1025FC00E38C9BB2002B39D0E08CA168013880B2FF
:10260C00B1F5805FE08419D0781C3BD110680106CD
:10261C00FCD5337801365360EAE7022003B0F0BDF5
:10262C00012003B0F0BD13681B060CD4002F33D06F
:10263C00FDF7CEFD401B874222682DD3781CF2D1CA
:10264C0010680106FCD533882169C3F30803536075
:10265C00002934D10236CBE713685B060BD4DFB10B
:10266C00FDF7B6FD401B8742226815D3781CF3D1C9
:10267C0013685906FCD52023002084F8393084F8DF
:10268C003800CBE713681B06C3D42FB1FDF7A0FDB0
:10269C00401B87422268B7D2202100250320D36833
:1026AC0023F4D073D360536923F00103536184F88E
:1026BC00391084F8385084F83A1003B0F0BD013664
:1026CC0096E700BF70B590F83A4082B0202C38D114
:1026DC00002939D0002A37D090F83830012B30D06F
:1026EC0004460025134601260A462221406BE56369
:1026FC0084F8386084F83A10154E1649A262A38506
:10270C008662C162144E2168456306630431FDF78D
:10271C002BFE2846236801951A6801925A6884F8A2
:10272C0038500192019ADA6842F48072DA605A6980
:10273C0042F001025A615A6942F040025A6102B0F9
:10274C0070BD022002B070BD012002B070BD00BF90
:10275C0069270008112800081D28000808B503681F
:10276C00406A1B6813F0200310D120210268C38536
:10277C00D36823F48073D360536923F0010353614E
:10278C00536923F04003536180F83A1002F038F893
:10279C0008BD00BF10B584680169B4F5805F836A19
:1027AC00026820D05C1C52688462C9B91A70C38D4F
:1027BC00013B9BB2C3858BB920240268D16821F000
:1027CC002001D160D16821F48071D160516921F070
:1027DC000101516180F83A4002F012F8002010BD5E
:1027EC0002F07F02E2E7526829B9C2F3080223F82B
:1027FC00022B8362DBE7D2B223F8012B8362D6E78C
:10280C00704700BF08B5406AFFF7FAFF08BD00BF6C
:10281C0008B5436A1A68506993F8391021291CD0FD
:10282C00506993F83A10222907D0DA6B184642F017
:10283C001002DA6301F0FEFF08BD4106F5D5002158
:10284C002020D985D16821F49071D160516921F093
:10285C000101516183F83A00E7E70006E0D5002159
:10286C002020D984D16821F0C001D16083F83900CF
:10287C00D6E700BF036870B51A6804461607DD6812
:10288C0059694AD011F0010150D0D60705D5E80599
:10289C0003D5E06B40F00100E063560702F0020044
:1028AC0076D561B1E16B02F0080641F00201E163FB
:1028BC00002872D11EB1E16B41F00801E163E16BBC
:1028CC00002932D0960601D5A80674D45D69E16B57
:1028DC00090702D415F040057AD02021DA6822F4D9
:1028EC009072DA605A6922F001025A6184F83A1047
:1028FC005A6952065BD55A69616B22F040025A61E3
:10290C00002954D03B4B08464B63FDF771FD60B179
:10291C00606BBDE87040436B1847960609D5A90655
:10292C0007D590F83A30222B4ED070BD15F4907F1D
:10293C00ABD116060ED45106F7D56A06F5D5202173
:10294C00DA68204622F04002DA6084F8391001F08F
:10295C003DFF70BD2806EED594F83920212AE4D12C
:10296C00A168226AB1F5805F37D0511C21621278C0
:10297C005A60E28C013A92B2E284002AD5D1DA682C
:10298C0022F08002DA60DA6842F04002DA6070BD50
:10299C0040B1002993D002F00806E16B41F004012C
:1029AC00E16387E710078AD5002984D187E72046A1
:1029BC0001F040FF70BD94F83A20222A86D12046BF
:1029CC00FFF7E8FE236881E7BDE87040FFF7E2BE41
:1029DC00204601F02FFFE56370BD11882069C1F31B
:1029EC000801596010B902322262C2E70132226238
:1029FC00BFE700BF052A0008002208B5436ADA8544
:102A0C001846DA8401F016FF08BD00BF002301222E
:102A1C0001604272C3800371704700BF2DE9F04F13
:102A2C004FF0000801274FF03209C64C9FB0064604
:102A3C004246A1892069FDF7ADFE3846FDF7CEFB75
:102A4C003A46A1892069FDF7A5FE06201EADFDF7CB
:102A5C00C5FB4246A1882068FDF79CFE05F8018D58
:102A6C003B462A46CDF800900DF11901A0688DF86F
:102A7C001970FFF7C7FA4FF0FF0C3B46CDF80090EA
:102A8C002A460DF11A01A0688DF81AC08DF87780CE
:102A9C00FFF7B8FA3A46A18820689DF877A0FDF7B1
:102AAC0079FE4246A1882068FDF774FE4FF0810C38
:102ABC003B46CDF800902A460DF11701A0688DF821
:102ACC0077808DF817C0FFF79DFA2AF0070C3B466C
:102ADC00CDF800902A4606A9A0688DF818C08DF88C
:102AEC007780FFF78FFA3A4600274FF001084FF036
:102AFC0032094FF0810BA1882068FDF74BFE7378EB
:102B0C000AF0780A032B3A46A188206808BF4AF0DD
:102B1C00800AFDF73FFE43462A460DF11B01A068D3
:102B2C00CDF800908DF81BB08DF87770FFF76AFA2E
:102B3C0043462A4607A9A068CDF800908DF8777017
:102B4C008DF81CA0FFF75EFA4246A1882068FDF7BD
:102B5C0021FE3A46A1882068FDF71CFE43462A4612
:102B6C000DF11F01A068CDF800908DF877708DF8ED
:102B7C001F80FFF747FA4FF0FF3C43462A4608A94F
:102B8C00A068CDF800908DF820C08DF87770FFF715
:102B9C0039FA4246A18820689DF877A0FDF7FAFD26
:102BAC003A46A1882068FDF7F5FD0AF0F80A43467D
:102BBC002A460DF11D01A068CDF800908DF81DB0CE
:102BCC008DF877704AEA080AFFF71CFA43462A4642
:102BDC000DF11E01A068CDF800908DF81EA08DF8A7
:102BEC007770FFF70FFA4246A1882068FDF7D2FDF7
:102BFC003A46A188206896F82AB0FDF7CBFD4FF035
:102C0C00860C4FF0870A43462A460DF11501A06841
:102C1C00CDF800908DF815C08DF87770FFF7F2F9AC
:102C2C0043462A460DF11601A068CDF800908DF8A8
:102C3C0016B08DF87770FFF7E5F94246A188206849
:102C4C00FDF7A8FD3A46A188206896F829B0FDF753
:102C5C00A1FD43462A460DF11301A068CDF8009062
:102C6C008DF877708DF813A0FFF7CCF943462A4600
:102C7C0005A9A068CDF800908DF814B08DF8777088
:102C8C00FFF7C0F94246A1882068FDF783FD3A465C
:102C9C00A188206896F828B0FDF77CFD4FF0880CD1
:102CAC0043462A460DF11101A068CDF800908DF82D
:102CBC0011C08DF87770FFF7A5F943462A460DF140
:102CCC001201A068CDF800908DF877708DF812B0D5
:102CDC00FFF798F94246A1882068FDF75BFD3A465C
:102CEC00A1882068FDF756FD4FF0090C43462A4693
:102CFC000DF10F01A068CDF800908DF877708DF86C
:102D0C000FC0FFF77FF94FF0FF3C43462A4604A95A
:102D1C00A068CDF800908DF810C08DF87770FFF793
:102D2C0071F94246A18820689DF87770FDF732FD55
:102D3C00337A07F07007132B40F2BD8047F00F0772
:102D4C0002E000BF280000200022A18820684FF07C
:102D5C003209FDF71FFD4FF000084FF0890C0123DD
:102D6C002A460DF12101A068CDF800908DF821C004
:102D7C008DF87780803FFFF745F901232A460DF146
:102D8C002201A068CDF800908DF877808DF8227024
:102D9C00FFF738F90122A1882068FDF7FBFCB37816
:102DAC004246012BA188206800F28B80DA27FDF7C0
:102DBC00F1FC01232A460DF12301A068CDF8009007
:102DCC008DF877808DF82370FFF71CF901232A46C4
:102DDC00A068CDF8009009A98DF824A08DF8778013
:102DEC00FFF710F90122A1882068FDF7D3FC4FF002
:102DFC0032080022A1882068FDF7CCFC00274FF098
:102E0C000A0C01232A460DF12F01A068CDF8008091
:102E1C008DF82FC08DF87770FFF7F4F84FF0FF0C9A
:102E2C0001232A460CA9A068CDF800808DF830C08B
:102E3C008DF87770FFF7E6F80122A18820689DF8DD
:102E4C007790FDF7A7FC33692F4AA2FB03231B0ADB
:102E5C000A2B40F22E860C2B09F00F0956D90F2B9A
:102E6C0040F21087142B40F21B87192B40F2068777
:102E7C001F2B40F22C87282B40F22D87322B40F24F
:102E8C002E873E2B40F21F87642B40F22C877D2B24
:102E9C0040F22D87FA2B40F22E87B3F5FA7F40F2E1
:102EAC002E87B3F57A7F40F22E87B3F5FA6F98BF71
:102EBC0049F001092CE0112B1DD9053B1F43FFB232
:102ECC0042E7CD27FDF766FC01232A460DF12501CB
:102EDC00A068CDF800908DF877808DF82570FFF7FD
:102EEC0091F8A068CDF8009001232A460DF1260137
:102EFC008DF826A072E7012B82BF023B1F43FFB265
:102F0C004FF0840A20E700BFD34D621049F00E0940
:102F1C004FF032080022A18820680027FDF73AFC08
:102F2C004FF08A0C01232A460DF12D01A068CDF833
:102F3C0000808DF82DC08DF87770FFF763F80123B2
:102F4C002A460DF12E01A068CDF800808DF82E9048
:102F5C008DF87770FFF756F80122A1882068FDF7ED
:102F6C0019FC3A46A1882068FDF714FC4FF08B0C35
:102F7C004FF0010901232A460DF12B01A068CDF871
:102F8C0000808DF82BC08DF87770FFF73BF84FF071
:102F9C000F0C4FF0FF0B4B462A460BA9A068CDF83F
:102FAC0000808DF82CC08DF87770FFF72BF84A460F
:102FBC00A1882068FDF7EEFB3A46A1882068FDF752
:102FCC00E9FB4B462A460DF12901A068CDF800809B
:102FDC008DF829908DF87770FFF714F84B462A4638
:102FEC000DF12A01A068CDF800808DF877708DF86E
:102FFC002AB0FFF707F84A46A18820689DF877A009
:10300C00FDF7C8FB3A46A1882068FDF7C3FB4FF0DB
:10301C000A0C4B462A460DF12701A068CDF800801A
:10302C008DF827C08DF87770FEF7ECFF4B462A46DB
:10303C000AA9A068CDF800808DF828B08DF87770BB
:10304C00FEF7E0FF4A46A18820689DF87790FDF7CF
:10305C00A1FB7378032B00F06583B278012A00F290
:10306C00FA840AF0870A002B00F01086022B00F07D
:10307C00FE854FF032080022A18820680027FDF75A
:10308C0089FB4FF0810C01232A460DF16501A068E4
:10309C00CDF800808DF865C08DF87770FEF7B2FF23
:1030AC0001232A460DF16601A068CDF800808DF849
:1030BC0077708DF866A0FEF7A5FF0122A188206825
:1030CC00FDF768FB3A46A1882068FDF763FB4FF0DB
:1030DC008A0C01232A460DF16301A068CDF800800B
:1030EC008DF863C08DF87770FEF78CFF01232A46AC
:1030FC0019A9A068CDF800808DF877708DF86490D0
:10310C00FEF780FF0122A1882068FDF743FB3A46B9
:10311C00A1882068B6F82C90FDF73CFB4FF0820C90
:10312C0001232A460DF161014FEA1929A068CDF857
:10313C0000808DF861C009F500798DF87770FEF785
:10314C0061FF01232A460DF16201A068CDF80080D1
:10315C008DF862908DF87770FEF754FF0122A188EC
:10316C002068FDF717FB3A46A188206896F82C904A
:10317C00FDF710FB4FF0830C01232A460DF15F0184
:10318C00A068CDF800808DF85FC009F540798DF806
:10319C007770FEF737FF01232A4618A9A068CDF8EF
:1031AC0000808DF860908DF87770FEF72BFF012270
:1031BC00A1882068FDF7EEFA3A46A1882068B6F897
:1031CC002E90FDF7E7FA4FF0840C01232A460DF1FF
:1031DC005D01C9F30529A068CDF800808DF85DC0AC
:1031EC0009F580698DF87770FEF70CFF01232A46EC
:1031FC000DF15E01A068CDF800808DF85E908DF821
:10320C007770FEF7FFFE0122A1882068FDF7C2FA55
:10321C003A46A188206896F82E90FDF7BBFA4FF03D
:10322C00850C01232A460DF15B01A068CDF80080C6
:10323C008DF85BC009F5A0698DF87770FEF7E2FE9A
:10324C0001232A4617A9A068CDF800808DF85C9060
:10325C008DF87770FEF7D6FE0122A1882068FDF765
:10326C0099FA3A46A1882068FDF794FA4FF08D0C34
:10327C0001232A460DF15901A068CDF800808DF884
:10328C0077708DF859C0FEF7BDFE4FF00E0C012380
:10329C002A460DF15A01A068CDF800808DF85AC06D
:1032AC008DF87770FEF7AEFE0122A1882068FDF73D
:1032BC0071FA3A46A188206896F83090FDF76AFAC0
:1032CC004FF0920C01232A460DF15701A068CDF85E
:1032DC0000808DF857C08DF87770FEF793FE0123B0
:1032EC002A4616A9A068CDF800808DF858908DF864
:1032FC007770FEF787FE0122A1882068FDF74AFA55
:10330C003A46A1882068FDF745FA4FF0940C01234A
:10331C002A460DF15501A068CDF800808DF8777024
:10332C008DF855C0FEF76EFE4FF0300C01232A4687
:10333C000DF15601A068CDF800808DF856C08DF8BF
:10334C007770FEF75FFE0122A1882068FDF722FA54
:10335C003A46A1882068FDF71DFA4FF09F0C012317
:10336C002A460DF15301A068CDF800808DF87770D6
:10337C008DF853C0FEF746FE4FF0C00C01232A46D1
:10338C0015A9A068CDF800808DF854C08DF8777021
:10339C00FEF738FE0122A1882068FDF7FBF93A46BA
:1033AC00A1882068B6F80A90FDF7F4F94FF0A50C47
:1033BC0001232A460DF151014FEA1929A068CDF8D5
:1033CC0000808DF851C009F514598DF87770FEF70F
:1033DC0019FE01232A460DF15201A068CDF8008098
:1033EC008DF852908DF87770FEF70CFE0122A188B3
:1033FC002068FDF7CFF93A46A188206896F80A9024
:10340C00FDF7C8F94FF0A60C01232A460DF14F0128
:10341C00A068CDF800808DF84FC08DF8777009F555
:10342C001859FEF7EFFD01232A4614A9A068CDF820
:10343C0000808DF877708DF85090FEF7E3FD012237
:10344C00A1882068FDF7A6F93A46A1882068FDF707
:10345C00A1F94FF0A40C01232A460DF14D01A068EF
:10346C00CDF800808DF877708DF84DC0FEF7CAFD51
:10347C004FF0070C01232A460DF14E01A068CDF840
:10348C0000808DF877708DF84EC0FEF7BBFD0122E1
:10349C00A1882068FDF77EF9B77E002F00F0D98255
:1034AC00013F07F00707703FFFB20022A188206898
:1034BC004FF03209FDF76EF94FF0000A4FF0A70CF0
:1034CC0001232A460DF16701A068CDF800908DF814
:1034DC0067C08DF877A0FEF795FD01232A461AA93F
:1034EC00A068CDF800908DF877A08DF86870FEF785
:1034FC0089FD0122A1882068FDF74CF94FF4205872
:10350C0006F11B0B1BF8017B00224744A1882068A5
:10351C00BFB2FDF73FF94FEA172C6CF07F0C01237B
:10352C002A460DF16901A068CDF800908DF869C0AC
:10353C008DF877A008F58078FEF764FD01232A4604
:10354C000DF16A01A068CDF800908DF86A708DF8C5
:10355C0077A01FFA88F8FEF755FD0122A188206894
:10356C00FDF718F9B8F5405FCCD1337B0022002B66
:10357C000BBF802300234FF090094FF01009777B8D
:10358C004FF03208A1882068974218BF9946174619
:10359C00FDF700F94FF0B00C01232A460DF16D0137
:1035AC00A068CDF800808DF86DC08DF87770FEF7AF
:1035BC0029FD01232A460DF16E01A068CDF800808B
:1035CC008DF86E908DF87770FEF71CFD0122A188A6
:1035DC002068FDF7DFF83A46A1882068FDF7DAF895
:1035EC004FF0B10C01232A460DF16B01A068CDF808
:1035FC0000808DF86BC08DF87770FEF703FD4FF0EF
:10360C00400C01232A461BA9A068CDF800808DF838
:10361C006CC08DF87770FEF7F5FC0122A18820684C
:10362C00FDF7B8F896F80C90B9F1000F00F0218274
:10363C003A46A1882068B67BFDF7ACF84FF0B20C87
:10364C0001232A460DF16F01A068CDF800808DF89A
:10365C0077708DF86FC0FEF7D5FC01232A46A06861
:10366C00CDF800801CA98DF870608DF87770FEF78E
:10367C00C9FC0122A1882068FDF78CF801264FF0C7
:10368C0032080022A1882068FDF784F800274FF04B
:10369C00B50C33462A460DF17501A068CDF80080B3
:1036AC008DF875C08DF87770FEF7ACFC33462A4662
:1036BC000DF17601A068CDF800808DF877708DF84B
:1036CC007660FEF79FFC3246A1882068FDF762F811
:1036DC003A46A1882068FDF75DF84FF0C10C3346DF
:1036EC002A460DF17301A068CDF800808DF873C0E7
:1036FC008DF87770FEF786FC4FF0610C2A46334646
:10370C00A068CDF800801DA98DF877708DF874C075
:10371C00FEF778FC0122A1882068FDF73BF81FB06A
:10372C00BDE8F08FB3780AF0870A032B00F0A38270
:10373C00052B00F0A08232270022A1882068FDF71B
:10374C0029F84FF000084FF0810C01232A460DF1A7
:10375C003301A06800978DF833C08DF87780FEF7A1
:10376C0051FC01232A460DA9A06800978DF834A0BE
:10377C008DF87780FEF746FC0122A1882068FDF7C2
:10378C0009F84246A1882068FDF704F84FF0310C87
:10379C0001230DEB0C012A46A06800978DF831C06F
:1037AC008DF87780FEF72EFC4FF0FF0C01232A4694
:1037BC000DEB0701A06800978DF832C08DF877806B
:1037CC00FEF720FC0122A18820689DF877A0FCF769
:1037DC00E1FF96F823900AF0F80AB9F1000F00F017
:1037EC006C814246A1882068FCF7D4FF4FF0B10CE5
:1037FC0001232A460DF13901A06800978DF839C0D4
:10380C008DF87780FEF7FEFB4AF0030C01232A4665
:10381C000DF13A01A06800978DF83AC08DF87780C9
:10382C00FEF7F0FB0122A1882068FCF7B3FFB37808
:10383C00012B00F23982327B96F83230062B92BF84
:10384C000027DF1FBF0196F8333088BF7FB247EAED
:10385C00C307FFB20AB147F00407737B0BB947F0FB
:10386C00020796F834300BB147F001074FF03209DC
:10387C000022A1882068FCF78DFF4FF000084FF064
:10388C009D0C01232A460DF13D01A068CDF8009056
:10389C008DF83DC08DF87780FEF7B4FB01232A46E6
:1038AC000DF13E01A068CDF800908DF83E708DF8BA
:1038BC007780FEF7A7FB0122A1882068FCF76AFF3E
:1038CC004246A188206896F83170FCF763FF4FF0F0
:1038DC009E0C01232A460DF13B01A068CDF8009007
:1038EC008DF877808DF83BC0FEF78CFB01232A46C0
:1038FC003F01FFB247F00707A068CDF800900FA971
:10390C008DF83C708DF87780FEF77CFB0122A18846
:10391C0020684FF03208FCF73DFF0022A188206898
:10392C000027FCF737FF4FF09F0C01232A460DF1BF
:10393C004B01A068CDF800808DF84BC08DF87770E6
:10394C00FEF760FB4FF0FF0C01232A4613A9A06879
:10395C00CDF800808DF84CC08DF87770FEF752FBD7
:10396C000122A1882068FCF715FF3A46A18820683F
:10397C00B6F80A90FCF70EFF4FF0A00C01232A4674
:10398C000DF149014FEA1929A068CDF800808DF896
:10399C0049C009F500598DF87770FEF733FB012308
:1039AC002A460DF14A01A068CDF800808DF84A90A6
:1039BC008DF87770FEF726FB0122A1882068FCF7B2
:1039CC00E9FE3A46A1882068B67AFCF7E3FE4FF090
:1039DC00A10C06F5045601232A460DF14701A068F7
:1039EC00CDF800808DF847C08DF87770FEF70AFB94
:1039FC008DF84860C12601232A4612A9A068CDF88B
:103A0C0000808DF87770FEF7FDFA0122A1882068FE
:103A1C00FCF7C0FE3A46A1882068FCF7BBFE8DF887
:103A2C004560402601232A460DF14501A068CDF8DA
:103A3C0000808DF87770FEF7E5FAA068CDF800806D
:103A4C002A4601230DF146018DF877708DF84660FA
:103A5C005EE6902729E50AF09F0A09F09F09002BE2
:103A6C0000F01881022B7FF404AB49F04009FFF7FA
:103A7C0000BBB2264A46A1882068FCF78BFE8DF865
:103A8C007160FF2601232A460DF17101A068CDF863
:103A9C0000808DF87790FEF7B5FAA068CDF800801D
:103AAC0001232A460DF172018DF877908DF8726022
:103ABC00DDE54FF00F09FFF72BBA4A46A1882068C5
:103ACC00FCF768FE4FF0B10C01232A460DF13701CB
:103ADC00A06800978DF837C08DF877904AF0050AEA
:103AEC00FEF790FA01232A460EA9A06800978DF8DC
:103AFC0038A08DF87790FEF785FA0122A18820680E
:103B0C00FCF748FE4A46A1882068FCF743FE4FF0BC
:103B1C00B70C01232A460DF13501A06800978DF8EA
:103B2C0035C08DF87790FEF76DFA4FF00C0C012331
:103B3C002A460DF13601A06800978DF836C08DF835
:103B4C007790FEF75FFA0122A1882068FCF722FE2D
:103B5C000123B27833739A4240F2B38096F83370F3
:103B6C0096F832307F0007EB0317FFB247F00107DE
:103B7C000022A18820684FF03209FCF70BFE4FF0B1
:103B8C0000084FF09D0C01232A460DF13F01A0685F
:103B9C00CDF800908DF83FC08DF87780FEF732FAA3
:103BAC0001232A4610A9A068CDF800908DF840702A
:103BBC008DF87780FEF726FA0122A1882068FCF7A1
:103BCC00E9FD96F83170737B3F01FFB20BB947F0FA
:103BDC0004074FF032090022A1882068FCF7DAFDB7
:103BEC004FF000084FF09E0C01232A460DF14101C5
:103BFC00A068CDF800908DF841C003378DF8778020
:103C0C00FEF700FA01232A460DF14201A068CDF817
:103C1C0000908DF842708DF87780FEF7F3F9012251
:103C2C00A1882068FCF7B6FD96F83430424643452F
:103C3C00A188206814BF0C270427FCF7ABFD4FF0BC
:103C4C00A60C01232A460DF14301A068CDF8009083
:103C5C008DF877808DF843C0FEF7D4F9A068CDF8C5
:103C6C00009001232A4611A98DF844704AE64AF0C7
:103C7C00100AFFF7FEB94AF0080A5CE549F00B0997
:103C8C00FFF746B949F00D09FFF742B94AF0300A7F
:103C9C00FFF7EFB94AF0200A49F04009FFF7E9B9FC
:103CAC0049F00C09FFF734B996F8337096F83220C6
:103CBC007F00337B07EB0217FFB2002B3FF458AFAA
:103CCC0054E71A46B8E549F00709FFF721B949F05E
:103CDC000A09FFF71DB949F00909FFF719B949F0AD
:103CEC000809FFF715B949F00609FFF711B949F0B2
:103CFC000509FFF70DB949F00409FFF709B949F0B7
:103D0C000309FFF705B949F00209FFF701B900BF34
:103D1C002DE9F043D0E904654768A44CFF02760115
:103D2C00ED02A4FB07C7A4FB06C6A4FB054585B0A2
:103D3C00FF08ED0890F818C09D4C8762C5850C9F54
:103D4C00BDF83450B609BCF10A0F86852761A16015
:103D5C002260A380A58146D9BCF10C0F35D9BCF1EA
:103D6C000F0F40F20C81BCF1140F40F20A81BCF130
:103D7C00190F40F2F580BCF11F0F40F20681BCF127
:103D8C00290F40F20481BCF1320F40F20281BCF1E8
:103D9C003E0F40F2F880BCF1530F40F2FC80BCF1B6
:103DAC00640F40F2FA80BCF17D0F40F2F880BCF158
:103DBC00A60F40F2F680BCF1C80F40F2F480BCF1C3
:103DCC00FA0F8CBF1022012200E00D2290F8233054
:103DDC0080F83020062B00F2BC80DFE803F0ACA5A5
:103DEC009EBAB38606001522F0E701230C22194671
:103DFC001D4680F8312090F82420022A00F08180A2
:103E0C00032A00F0B780002A00F0B08007222B466E
:103E1C0080F8322090F82520022A7AD0032A00F06C
:103E2C00A180012A14BF0122022280F8332000272E
:103E3C0001254FF0320980F83430FEF7EFFD04AE67
:103E4C003A46A1882068FCF7A5FC06F8017DA0681D
:103E5C0032462B460DF10D01CDF800908DF80D502A
:103E6C00FEF7D0F84FF0FF0C2B46A06832460DF150
:103E7C000E01CDF800908DF80EC08DF80F70FEF786
:103E8C00C1F82A46A18820689DF80F80FCF782FCB7
:103E9C003A46A1882068FCF77DFC4FF0810CA068A5
:103EAC0032462B460DF10B01CDF8009008F0F808C6
:103EBC008DF80BC08DF80F7048EA0508FEF7A2F8D4
:103ECC00A06832462B4603A9CDF800908DF80C80E3
:103EDC008DF80F70FEF796F820682A46A188FCF73B
:103EEC0059FC284605B0BDE8F0830B22012380F86D
:103EFC00312090F824201D46022A4FF000017FF457
:103F0C007FAF082280F8322090F825200B46022A39
:103F1C0084D1032280F8332089E700230822194634
:103F2C0080F831201D4666E700230722194680F8E9
:103F3C0031201D465FE700230622194680F8312008
:103F4C001D4658E70A23002180F831300D46012325
:103F5C0051E70023092219461D4680F831204AE713
:103F6C000C2233E7042280F8332060E7062280F825
:103F7C0032204FE70922002380F832204AE705223D
:103F8C0024E7142222E7032220E704221EE713224F
:103F9C001CE70B221AE7122218E70A2216E7022264
:103FAC0014E7112212E7092210E700BFD34D62106B
:103FBC00280000202DE9F04F4378B44C032B074622
:103FCC000E468DB090462068A18800F01A824FF002
:103FDC0000094FF0320A4A46FCF7DCFB4FF0C00CEC
:103FEC000CAD05F8019D2A4601230DF11B01A068BB
:103FFC00CDF800A08DF81BC0FEF704F82A4601236B
:10400C0007A9A068CDF800A08DF81C908DF82F9012
:10401C00FDF7F8FF0122A1882068FCF7BBFB97F89D
:10402C000C90B9F1000F00F00A810022A1882068E1
:10403C004FF0320AFCF7AEFB4FF0000B4FF0800C48
:10404C00A068CDF800A001232A4608A98DF820C04D
:10405C008DF82FB0FDF7D6FFB8F1000F16D008F190
:10406C00FF395FFA89F9B144013E16F801CFA06817
:10407C00CDF800A001232A460DF11F018DF82FB0B9
:10408C008DF81FC0FDF7BEFFB145EED14FF0000A11
:10409C004FF001094FF0320BFF260122A188206856
:1040AC00FCF778FB5246A1882068FCF773FB4B4663
:1040BC002A460DF12301A068CDF800B08DF82390AD
:1040CC008DF82FA0FDF79EFF4B462A4609A9A06844
:1040DC00CDF800B08DF824608DF82FA0FDF792FF7D
:1040EC004A46A18820689DF82F60FCF753FB524686
:1040FC00A1882068FCF74EFB4FF0810C4B462A46FA
:10410C000DF1210106F0F806A068CDF800B08DF88D
:10411C0021C046F003068DF82FA0FDF773FF4B4628
:10412C002A460DF12201A068CDF800B08DF822606E
:10413C008DF82FA0FDF766FF4A46A1882068FCF792
:10414C0029FB7B78032B00F0A5803B695048BA7E95
:10415C00A0FB033079893B7B0A448009424403B9B4
:10416C0001327B7B002B68D001274FF000084FF009
:10417C003209D20080B202FB00F0454AA2FB0030AB
:10418C00800908BF3846FCF729F84246A188206808
:10419C00FCF700FB3B462A460DF12D01A068CDF83B
:1041AC0000908DF82D708DF82F80FDF72BFF4FF0C0
:1041BC00FF0C3B462A460DF12E01A068CDF800906D
:1041CC008DF82EC08DF82F80FDF71CFF3A46A18884
:1041DC0020689DF82FA0FCF7DDFA4246A1882068E4
:1041EC00FCF7D8FA4FF0810C3B462A460DF12B0117
:1041FC00A068CDF800900AF0F80A8DF82BC08DF865
:10420C002F804AEA070AFDF7FDFE2A463B460BA91A
:10421C00A068CDF800908DF82CA08DF82F80FDF7BC
:10422C00F1FE20683A46A188FCF7B4FA632E8CBFE5
:10423C00002001200DB0BDE8F08F023294E74A4611
:10424C00A1882068FCF7A6FA4FF0800C2A460DF1E5
:10425C001D01A068CDF800A001238DF81DC08DF8BC
:10426C002F90FDF7CFFE2A460DF11E01A068CDF868
:10427C0000A001238DF81E808DF82F90FDF7C2FE53
:10428C000122A1882068FCF785FACEE628000020E0
:10429C00D34D621097F8311078898A007B7BC2EB82
:1042AC00C80292B200F10D06002B00F0C6811C3240
:1042BC0093B23A7B0AB1143B9BB297F82520022AA1
:1042CC0000F0C881032A00F0C281012A0ABF03EB67
:1042DC00430303EB83035B009BB297F834209B08EA
:1042EC00002A00F0AF81D648A0FB0323D80897F82A
:1042FC003230304499422BBFC91A591A8840C840F1
:10430C000126FBF76BFF4FF03208A18820680022D2
:10431C00FCF740FA00274FF0920C4FF0FF093346A0
:10432C002A460DF12501A068CDF800808DF825C036
:10433C008DF82F70FDF766FE33462A460DF12601E7
:10434C00A068CDF800808DF826908DF82F70FDF7C1
:10435C0059FE3246A1882068FCF71CFA3A46A1881F
:10436C002068FCF717FA33462A460DF12901A0689C
:10437C00CDF800808DF82F708DF82960FDF742FE86
:10438C0033462A460DF12A01A068CDF800808DF83D
:10439C002A908DF82F70FDF735FE3246A1882068E3
:1043AC009DF82F90FCF7F6F93A46A1882068FCF7A7
:1043BC00F1F94FF0810C33462A460DF12701A06824
:1043CC00CDF8008009F0F8098DF827C08DF82F7012
:1043DC0049EA0609FDF716FE2A4633460AA9A068E3
:1043EC00CDF800808DF828908DF82F70FDF70AFE1F
:1043FC0020683246A188FCF7CDF930460DB0BDE8F7
:10440C00F08F4FF0000A4FF032095246FCF7C2F918
:10441C004FF0A20C0CAD05F801AD2A4601230DF1AD
:10442C001901A068CDF800908DF819C0FDF7EAFDD0
:10443C0001232A460DF11A01A068CDF800908DF8E1
:10444C002FA08DF81A80FDF7DDFD0122A1882068D0
:10445C00FCF7A0F95246A1882068FCF79BF94FF0B5
:10446C00C00C2A4601230DF11701A068CDF800906D
:10447C008DF817C08DF82FA0FDF7C4FD4FF0620C1E
:10448C0001232A4606A9A068CDF800908DF818C023
:10449C008DF82FA0FDF7B6FD0122A1882068FCF74E
:1044AC0079F95246A1882068FCF774F94FF0920C08
:1044BC004FF0FF0B2A4601230DF11501A068CDF832
:1044CC0000908DF815C08DF82FA0FDF79BFD0123F2
:1044DC002A460DF11601A068CDF800908DF816B0A3
:1044EC008DF82FA0FDF78EFD0122A1882068FCF726
:1044FC0051F95246A1882068FCF74CF94FF0910C09
:10450C002A4601230DF11301A068CDF800908DF817
:10451C0013C08DF82FA0FDF775FD4FF0F70C01239C
:10452C002A4605A9A068CDF800908DF814C08DF826
:10453C002FA0FDF767FD0122A1882068FCF72AF95E
:10454C005246A1882068FCF725F94FF00E0C2A463C
:10455C0001230DF11101A068CDF800908DF811C068
:10456C008DF82FA0FDF74EFD01232A460DF1120107
:10457C00A068CDF800908DF812B08DF82FA0FDF743
:10458C0041FD0122A18820689DF82FB0FCF702F9AB
:10459C005246A1882068FCF7FDF84FF08D0C2A4696
:1045AC0001230DF10F01A068CDF800908DF80FC01C
:1045BC008DF82FA0FDF726FD01232A4604A9A0683B
:1045CC00CDF800908DF810B08DF82FA0FDF71AFDE6
:1045DC000122A1882068FCF7DDF85246A1882068EA
:1045EC00FCF7D8F84FF0800CA068CDF800902A4664
:1045FC0001230DF10E018DF82FA08DF80EC0FDF7E3
:10460C0001FDB8F1000F3FF441AD08F1FF3B5FFA3B
:10461C008BFBB344013E16F801CFA068CDF8009097
:10462C0001232A460DF10D018DF82FA08DF80DC038
:10463C00FDF7E8FCB345EED128E52C3293B238E611
:10464C00CDCCCCCC0548A0FB0323D8084FE6DB002F
:10465C009BB242E6C3EBC3039BB23EE6ABAAAAAA4B
:10466C002DE9F041002632278046164C84B004AD6B
:10467C003246A1882068FCF78DF805F8016DA0681A
:10468C002A460DF10D01009701238DF80D80FDF7E1
:10469C00B9FC4FF0FF0CA0682A4601230DF10E0166
:1046AC0000978DF80EC08DF80F60FDF7ABFCA1885C
:1046BC0020689DF80F400122FCF76CF8204604B0EE
:1046CC00BDE8F0812800002010B40346002401222C
:1046DC00C0F8101383F80B2383F80A430846A3F899
:1046EC00004219464FF4007210BCFDF7EBBF00BF3F
:1046FC0082B30346002070B4551EADB20D4401398F
:10470C00D3F81043646B246864686442C4F30804EF
:10471C00A3F80242B3F80262B3F80042A4B2B44266
:10472C0011D0B3F80042A4B21E5DB3F800420134BC
:10473C00C4F30804A3F8004201F8016FA942DFD1C9
:10474C0070BC1046704701F8010FA942D8D170BC5B
:10475C001046704710467047D0F810335B6B1B68DF
:10476C005B685B42C3F30803A0F80232B0F8023274
:10477C00B0F80002181AC0F308007047B0F8023203
:10478C004FF400729BB2A0F80032002101F06FBA16
:10479C00002310B4094C237071B14A1E831CD2B291
:1047AC0003EB420203889BB213B1013B9BB2038023
:1047BC0002308242F6D1217010BC70473C000020C0
:1047CC0001210148FFF7E4BFF80500200368084AFF
:1047DC00934208D0074A934200D070470122064BFF
:1047EC0083F80B2370470122044B83F80B2370478B
:1047FC000044004000480040B8060020DC020020C5
:10480C000368084A934208D0074A934200D0704785
:10481C000122064B83F80A2370470122044B83F8CC
:10482C000A2370470044004000480040B8060020AE
:10483C00DC02002030B40368204A86B093421FD0BB
:10484C001F4A934202D006B030BC704700244FF48C
:10485C0000720394196803915D681A490395039DCE
:10486C0004941D6804955D680495049D05941C686A
:10487C0005945B680593059B06B030BCFDF722BF21
:10488C00002200921968104C009159680125009182
:10489C00009901921968019159680191019902924C
:1048AC001A68214602924FF400725B680293029BD5
:1048BC0084F80B5306B030BCFDF704BF0044004035
:1048CC0000480040B8060020DC0200204FF4807243
:1048DC00F0B503231120102701214FF0050C1526EC
:1048EC00002493B00192ADF81C201D4A1D4D8DF88B
:1048FC00113000928DF833308DF818008DF834108B
:10490C000DEB07004FF4805302F5806216490595B4
:10491C008DF812C0ADF81A708DF81E608DF8354008
:10492C00FFF7F6F9114DE0B2FFF79AFE01340D2CAA
:10493C0005F8010BF7D10E4B93E803000B0C02901A
:10494C00ADF80C108DF80E3002A8FBF7F9FB02A99C
:10495C00C2B204A8FFF72EFB3220FBF73FFCF3E7B3
:10496C0000080140509F0600E0090020C40200200E
:10497C00885D0008084A5388013B1BB2002B53800A
:10498C0001DD00207047B2F9003013B90F210B463E
:10499C001180538001207047F005002010B584B0C1
:1049AC00012201A92348FCF733FC00229DF80510D5
:1049BC009DF804004B1CDBB203F00F04092C84BFE0
:1049CC00CB1DDBB25F2B8DF80A2003928DF808000B
:1049DC008DF8093013D9421CD2B202F00F0109290B
:1049EC0084BFC21DD2B2232A8DF80820A3F1600324
:1049FC0088BF243A8DF8093088BF8DF80820012231
:104A0C0002A90C48FCF7CAFF02210120FBF7D4FED7
:104A1C00012280210848FBF7BDFE3220FBF7DEFBAC
:104A2C00002280210448FBF7B5FE0248FDF7D0FABE
:104A3C0004B010BDCC0900200008014030B512496B
:104A4C0083B01248FFF740FE11491248FFF73CFEB5
:104A5C000C24114D80212846FBF7A0FE3220FBF7D9
:104A6C00BDFB013CF6D109490C48FDF7CFFF0C4BBF
:104A7C00DA6942F08052DA61DB6903F0805301930A
:104A8C00019B03B030BD00BF000B0020DC020020F6
:104A9C00C00A0020B806002000080140FC050020D8
:104AAC000010024038B50C4609780546012927D07C
:104ABC0023D3032920D14FF480720021059801F0F3
:104ACC00D6F82846FFF748FE059902462846FFF718
:104ADC000FFE0598FBF734FB05460698FBF730FBF9
:104AEC0085421EDB059B291A02461944069801F0E3
:104AFC00AFF8B0B90423237038BD012113602170C5
:104B0C002846FFF73BFE0498FBF71AFB642382B29E
:104B1C000499D5F81003FDF74BFD2378013323706E
:104B2C0038BD002DE6D00523237038BD2DE9F043A8
:104B3C00AC4C87B0E07A0E4615460E9F1A2800F250
:104B4C009D80DFE810F01B001D009D00FA01F701AD
:104B5C00F001ED01EA01E701E401E101DE01DB0115
:104B6C00D801D001C2012D00B901B0013E01E30012
:104B7C003A01D100BD00F001B200AB000123E37299
:104B8C00257B002D6BD0032D28D100220323E07A46
:104B9C0022730130C0B2E072236107B0BDE8F0832C
:104BAC00227B002A40F0E081002B00F08D818E4F9B
:104BBC001946384601F070F83846FBF7C1FA8B4BB2
:104BCC001B883B528A4B8B4ACDE9007502933046C9
:104BDC00A2F108019623FFF765FF257B052D2FD841
:104BEC0001A353F825F000BF314C00084D4C0008D0
:104BFC003D4C00084D4C0008974B00080D4C00082C
:104C0C00236923BB0321D4F8E420237301328A42A5
:104C1C00B4BF19201A20C4F8E420E072216107B057
:104C2C00BDE8F083E07A0323236107B0BDE8F0838D
:104C3C006369EBB90323E07A237307B0BDE8F08313
:104C4C0019200023E072237307B0BDE8F083002223
:104C5C00E07A013B2361227307B0BDE8F0830122A7
:104C6C0002216548FBF796FD02232373502325612F
:104C7C00E07A013B636107B0BDE8F083257BADE7CB
:104C8C005E495F4B5B4A0195029100933046A2F15D
:104C9C0008019623FFF706FF257B9FE700220221E0
:104CAC005548FBF777FD257B98E7257B002D00F019
:104CBC005D81032D92D1002301202373E072B2E7B2
:104CCC00238BB4F8DE10B4F8DC2001339BB2914294
:104CDC00238300F03A81B4F8E0209A42C0F0358189
:104CEC001423257BE37279E7237B3F4F002B00F0E5
:104CFC004681424B3F4ACDE9007502933046A2F102
:104D0C0008010523FFF7CEFE257B67E7237B364F93
:104D1C00002BEED1B846238BDFF804C1394AACFB2B
:104D2C00031E07CA4FEADE0EA8E803000EEB8E093D
:104D3C00A3EB49013031A17288F80020BEF1000FBD
:104D4C0000F03681ACFB0E122F49D208A1FB0301F7
:104D5C0002EB8202AEEB420230324909627200F081
:104D6C002481ACFB0120294AC008A2FB03E200EB22
:104D7C008000A1EB400130319209217200F01281C8
:104D8C00ACFB02012248C908A0FB030301EB810123
:104D9C00A2EB410230325B0BE27100F00081303348
:104DAC00A371062205231B490833088822448978FD
:104DBC000D92FA18F85291709BE71623257BE3723B
:104DCC000CE7002D6ED01449284600F094FF0646DF
:104DDC00002800F0BD80114900F08DFF0022073043
:104DEC0026E000BF400000205C000020B05E000800
:104DFC00A85D00085400002000140140AC5E0008BF
:104E0C00A05D0008D05E00081F85EB51D34D6210E9
:104E1C005917B7D1B45D0008905D0008985D000883
:104E2C00CDCCCCCC10F8011F03F0FF022C2909D0FB
:104E3C00017802EB820301EB430330390929A3F11A
:104E4C003003EFD996B228465B49A4F8DE6000F037
:104E5C0052FF002800F0A1802C2100F010FF00234D
:104E6C000130017803EB830201EB4202303909294E
:104E7C00A2F1300205D810F8011F02F0FF032C2913
:104E8C00EFD11422A4F8E030E272002E7FF4F6AEDB
:104E9C00012117223B78218323F004033B70257BEF
:104EAC00E2729BE6FEE7237B1BB9A4F8DC30A4F886
:104EBC00DE304249424BE5E605223B78E27223F0B4
:104ECC0002033B70257B89E6FEE73E493E4B3F4A99
:104EDC000195029100933046A2F108010523FFF7DA
:104EEC00E1FD257B7AE605223B78E27223F0010393
:104EFC003B70257B72E63649364BC3E63449364B5C
:104F0C00C0E63349354BBDE63149354BDFE7304917
:104F1C00344BDCE72E49344BD9E72D49334BD6E7DC
:104F2C002B49334BAEE63B78257BD90708D50623B6
:104F3C00E37253E626492F4BC9E725492E4BC6E7AA
:104F4C009A0722D50F23E37248E601210522A1E737
:104F5C0028461949A4F8DE6000F0CDFE00287FF445
:104F6C007BAFA4F8E00093E7244F2BE62A460221FE
:104F7C002348FBF70FFC02222823227378E6238BAD
:104F8C00B846DFF884C01F4AC9E65B0745BF01225B
:104F9C00122318232283E37220E6034671E70423CD
:104FAC00072200E703230822FDE602230922FAE682
:104FBC0001230A22F7E600BF905D0008AC5E0008F2
:104FCC00B45E00088C5E0008945E0008540000205B
:104FDC00A85D0008785E0008685E0008585E00084E
:104FEC00385E0008145E0008F45D0008D45D00080B
:104FFC00C45D0008B85D0008B05D00085C000020CE
:10500C0000140140DC5E0008CDCCCCCC70B505465C
:10501C000D4C642305220D49D4F81003FDF7C8FA92
:10502C002846FBF78DF8294682B26423D4F8100386
:10503C00FDF7BEFAD4F810036423BDE870400322D8
:10504C000349FDF7B5BA00BFB8060020E85E0008BA
:10505C00F05E000870B57C4982B0044600F04BFE4F
:10506C0010B1002002B070BD2046784900F043FE1C
:10507C0070B300F1090421460422754800F014FEB7
:10508C00002800F0B68004222146724800F00CFE85
:10509C00002800F0CF8020466F4900F02CFEB8B1FC
:1050AC0003780024532B08BF063009E010F8012FB9
:1050BC0004EB840403EB4403482AA3F130040AD024
:1050CC000378A3F13002092AF0D9022002B070BD96
:1050DC00012002B070BD614D642305226049D5F8F2
:1050EC001003FDF765FA64230D225E49D5F8100311
:1050FC00FDF75EFA642303225B49D5F81003FDF734
:10510C0057FA5A4B5A49A3FB040203C9D20802EBC3
:10511C008206A4EB46063036ADF8041000908DF8EC
:10512C000460002A46D0A3FB02105249C008A1FB20
:10513C00046100EB8000A2EB4002303249098DF88B
:10514C00032037D0A3FB01204B4AC008A2FB04620A
:10515C0000EB8000A1EB4001303192098DF8021078
:10516C0028D0A3FB02104549C008A1FB046100EB49
:10517C008000A2EB40023032490B8DF8012019D08F
:10518C00A3FB01203E4E6209A6FB0262C00800EBA5
:10519C008000A1EB40013031D2098DF8001009D00C
:1051AC00A3FB0213DB0803EB8303A2EB43033033B3
:1051BC000DF8013C642305222949D5F81003FDF7AD
:1051CC00F7F96846FAF7BCFF694682B26423D5F852
:1051DC001003FDF7EDF9D5F81003642303222249DF
:1051EC00FDF7E6F90220274B24B21C805C8002B04C
:1051FC0070BD1A4C642305221949D4F81003FDF72D
:10520C00D7F9642322222049D4F81003FDF7D0F9F2
:10521C00642303221449D4F81003FDF7C9F90122C1
:10522C0010211A48FBF7B6FA012280211748FBF728
:10523C00B1FAFEE71648FFF7E9FE012210211348E8
:10524C00FBF7A8FAFFF742FBA85D0008FC5E00081C
:10525C00085F0008345F0008545F0008B80600209F
:10526C00E85E00085C5F0008F05E0008CDCCCCCC9A
:10527C00F45E00081F85EB51D34D62105917B7D15E
:10528C00C55A7C0AF0050020105F00080008014098
:10529C003C5F000830B5894C83B094F8E8304BB1D2
:1052AC000123874A84F8E83013889BB253B101205C
:1052BC0003B030BD012210218248C4E93B33FBF717
:1052CC0069FAEDE7642380217E481380FBF766FAC8
:1052DC0094F8E830EBB1D4E93B320133C4F8EC304C
:1052EC00052A00F28580DFE802F055836F3D032A22
:1052FC00754D00230095A5F5807274490120FFF7C8
:10530C0015FC182800F086801A286CD1002384F82C
:10531C00E83000252B462A46294600952846FFF7FB
:10532C0005FC2A4610216748FBF734FA2A468021EF
:10533C006448FBF72FFA94F8E80003B030BD624ADA
:10534C0062490092131D0120A2F58072FFF7EEFB5B
:10535C00182801D01A2846D1002384F8E830C4F864
:10536C00F030D6E7584A5A4B00925849A2F5807251
:10537C000120FFF7DBFB1828C6D10122D4F8F0304E
:10538C0094F8E800134484F8F421C4F8F0300028B1
:10539C00BFD08DE74C4A002300924C49A2F5807295
:1053AC000120FFF7C3FB1A2826D0D4F8EC30632B6E
:1053BC0019DD0222042394F8E800C4F8F02084F8E4
:1053CC00F4310028A5D073E73F4D00230095A5F5D7
:1053DC0080723E490120FFF7A9FB18283ED01A28FD
:1053EC0094D015282AD094F8E800002891D05FE7D3
:1053FC000023C4F8F0305AE70022D4F8EC3084F8DB
:10540C00E820632B85DD02220423C4F8F02084F805
:10541C00F4317EE77F22A5F58071281D00F056FC43
:10542C000222D4F8F03094F8E800013384F8F42127
:10543C00C4F8F03000283FF46CAF39E7A5F5807064
:10544C00FFF708FE0138012818D9238B94F8E800DF
:10545C000133238300283FF45CAF29E794F8F5313E
:10546C00012B19D00122042394F8E80084F8F421CC
:10547C00C4F8F03000283FF44CAF19E7228BB4F895
:10548C00DC3094F8E800013201332283A4F8DC30DC
:10549C0000283FF43EAF0BE700210222D4F8F03095
:1054AC0094F8E800013384F8F511C4F8F03084F86E
:1054BC00F42100283FF42DAFFAE600BF4000002095
:1054CC00F80500200008014034020020B806002036
:1054DC006C5F000800220F4B10B55C6982B044F081
:1054EC0001045C615B69114603F0010301930D201B
:1054FC00019BFAF797FE0D20FAF7CAFE0022102046
:10550C001146FAF78FFE102002B0BDE81040FAF7F2
:10551C00BFBE00BF001002404A4B2DE9F0479A690C
:10552C0088B042F010029A619A69DFF824A102F067
:10553C0010020092009A9969DFF8189141F020014D
:10554C00996102219C69DFF8108104F02004019418
:10555C00019C9C69504644F004049C619C690022A7
:10556C0004F004040294029C9C690D4644F0080467
:10557C009C619B69032603F008030393039BFBF7D1
:10558C0009F94846002248F29011FBF703F9002272
:10559C0040464FF48051FBF7FDF84FF46043012770
:1055AC00002404A92848CDE90436FBF703F804A924
:1055BC005046CDE90476FAF7FDFF504604A9CDE933
:1055CC000457CDE90645FAF7F5FF41F6036304A944
:1055DC004846CDE90436FAF7EDFF48F2901304A9DA
:1055EC0048460493CDE905740795FAF7E3FF602369
:1055FC00484604A90493CDE90545FAF7DBFF04A955
:10560C004046CDE904640694FAF7D4FF4FF47F7357
:10561C0004A94046CDE90436FAF7CCFF4FF4805389
:10562C0004A940460493CDE905740795FAF7C2FF27
:10563C00064A536843F0E06343F40043536008B0F8
:10564C00BDE8F0870010024000100140000001404E
:10565C000014014000080140000C014010B50A2163
:10566C0001241022002394B00AA80A910E94CDE9CB
:10567C000F241193FBF7C4F800B1FEE703460F2289
:10568C00014605A8CDE90633CDE908330592FBF7B1
:10569C009FFA00B1FEE74FF4007301A8CDE9014376
:1056AC00FBF792FB044600B1FEE7FBF767FB4FF4F8
:1056BC007A73B0FBF3F0FAF7F7FD0420FAF70CFE5F
:1056CC00224621464FF0FF30FAF7ACFD14B010BD66
:1056DC0008B5FAF75FFDFFF7C1FFFFF71DFFFFF7F6
:1056EC00F9FE00F08DF900F0ABF900F07BF800F05A
:1056FC0015F8FFF7A3F901E0FFF750F9FFF73AF9B6
:10570C000028F9D0FFF7C6FD0028F5D0FFF7C2FD41
:10571C000028F7D1F0E700BFFEE700BF10B500226C
:10572C004FF0FF34174B184982B01846C3E90014E8
:10573C009A60FBF743FC00BB41F214441423012292
:10574C0069461048ADF800408DF80230FBF7B4FC08
:10575C0070B90E4B02A9012241F8043D0948FCF72F
:10576C001FF818B15A210A48FFF7D6FF02B010BD36
:10577C004D210748FFF7D0FFEBE73F210448FFF727
:10578C00CBFFD9E7CC0900200028004001112218DA
:10579C007C5F00080268104B9A4200D0704730B50D
:1057AC0083B0FBF703F8012500220C4B0C4CD86995
:1057BC00114640F00060D861DB69292003F00063DA
:1057CC000193019B2560FAF72DFD292003B0BDE85C
:1057DC003040FAF75DBD00BF0028004000100240C9
:1057EC003C0442424FF4827038B500224FF40074EE
:1057FC000A210C4B0C4D586018461D609C61D962F7
:10580C00C3E90222C3E90422C3E90722C3E909223E
:10581C00FCF7ACFD00B938BD4521BDE83840034864
:10582C00FFF77ABFE0090020003800408C5F0008C9
:10583C000268144B9A4200D070474FF4204130B5A7
:10584C000225032403F5EC33DA6987B042F4804275
:10585C00DA61DB690C4803F480430291019302A9DD
:10586C00019B03950594FAF7A5FE00234FF48042A3
:10587C0002A90548CDE902230493FAF79BFE07B071
:10588C0030BD00BF00380040000C0140254B00B576
:10589C009A6983B042F001029A619A69032002F07E
:1058AC0001020092009ADA6942F08052DA61DB69F7
:1058BC0003F080530193019BFAF7A2FC00226FF0D6
:1058CC000B001146FAF7AEFC00226FF00A001146ED
:1058DC00FAF7A8FC00226FF009001146FAF7A2FCB7
:1058EC0000226FF004001146FAF79CFC00226FF0C6
:1058FC0003001146FAF796FC00226FF001001146E6
:10590C00FAF790FC00224FF0FF301146FAF78AFCB0
:10591C00054A536823F0E06343F00073536003B00F
:10592C005DF804FB0010024000000140704700BF0E
:10593C0008B5054C20468021FAF730FF4FF4FA7079
:10594C00FAF74CFCF6E700BF00080140FEE700BF89
:10595C00FEE700BFFEE700BF704700BF704700BF07
:10596C00704700BF08B5FAF727FCBDE80840FAF706
:10597C00BFBC00BF0148FAF787BD00BF7C0A0020FE
:10598C000148FAF781BD00BF380A00200148FCF736
:10599C0071BF00BF000B00200148FCF76BBF00BFBC
:1059AC00C00A00200148FCF713BB00BFCC09002043
:1059BC0030B44FF41F054FF000640E4B0E4A1968BB
:1059CC000E4841F00101196059680A405A601A6882
:1059DC0022F0847222F480321A601A6822F4802237
:1059EC001A605A6822F4FE025A609D60846030BCD2
:1059FC00704700BF001002400000FFF800ED00E00F
:105A0C0038B500224FF416550C210A4B0A4C184697
:105A1C00C3E900455961C3E902221A61C3E90622B0
:105A2C00FCF7E2FC00B938BD4621BDE8384003481C
:105A3C00FFF772BE000B0020004400409C5F000882
:105A4C0038B500224FF416550C210A4B0A4C184657
:105A5C00C3E900455961C3E902221A61C3E9062270
:105A6C00FCF7C2FC00B938BD5921BDE838400348E9
:105A7C00FFF752BEC00A0020004800409C5F00089F
:105A8C0070B5444A036886B09342044604D0424A37
:105A9C0093423FD006B070BD0420022603253F4B35
:105AAC0002A9DA6942F40032DA61DB69029003F48C
:105ABC00003300933A48009B03960595FAF77AFD5C
:105ACC00082300260DEB03013548CDE90236049678
